{
  "_format": "hh-sol-artifact-1",
  "contractName": "ForwardCreator",
  "sourceName": "contracts/ForwardCreator.sol",
  "abi": [
    {
      "anonymous": false,
      "inputs": [
        {
          "indexed": false,
          "internalType": "address",
          "name": "previousAdmin",
          "type": "address"
        },
        {
          "indexed": false,
          "internalType": "address",
          "name": "newAdmin",
          "type": "address"
        }
      ],
      "name": "AdminChanged",
      "type": "event"
    },
    {
      "anonymous": false,
      "inputs": [
        {
          "indexed": true,
          "internalType": "address",
          "name": "beacon",
          "type": "address"
        }
      ],
      "name": "BeaconUpgraded",
      "type": "event"
    },
    {
      "anonymous": false,
      "inputs": [
        {
          "indexed": false,
          "internalType": "uint256",
          "name": "artistId",
          "type": "uint256"
        },
        {
          "indexed": false,
          "internalType": "string",
          "name": "name",
          "type": "string"
        },
        {
          "indexed": false,
          "internalType": "string",
          "name": "symbol",
          "type": "string"
        },
        {
          "indexed": true,
          "internalType": "address",
          "name": "artistAddress",
          "type": "address"
        }
      ],
      "name": "CreatedArtist",
      "type": "event"
    },
    {
      "anonymous": false,
      "inputs": [
        {
          "indexed": true,
          "internalType": "address",
          "name": "previousOwner",
          "type": "address"
        },
        {
          "indexed": true,
          "internalType": "address",
          "name": "newOwner",
          "type": "address"
        }
      ],
      "name": "OwnershipTransferred",
      "type": "event"
    },
    {
      "anonymous": false,
      "inputs": [
        {
          "indexed": true,
          "internalType": "address",
          "name": "implementation",
          "type": "address"
        }
      ],
      "name": "Upgraded",
      "type": "event"
    },
    {
      "inputs": [],
      "name": "admin",
      "outputs": [
        {
          "internalType": "address",
          "name": "",
          "type": "address"
        }
      ],
      "stateMutability": "view",
      "type": "function"
    },
    {
      "inputs": [
        {
          "internalType": "uint256",
          "name": "",
          "type": "uint256"
        }
      ],
      "name": "artistContracts",
      "outputs": [
        {
          "internalType": "address",
          "name": "",
          "type": "address"
        }
      ],
      "stateMutability": "view",
      "type": "function"
    },
    {
      "inputs": [],
      "name": "baseURI",
      "outputs": [
        {
          "internalType": "string",
          "name": "",
          "type": "string"
        }
      ],
      "stateMutability": "view",
      "type": "function"
    },
    {
      "inputs": [],
      "name": "beaconAddress",
      "outputs": [
        {
          "internalType": "address",
          "name": "",
          "type": "address"
        }
      ],
      "stateMutability": "view",
      "type": "function"
    },
    {
      "inputs": [
        {
          "internalType": "string",
          "name": "name",
          "type": "string"
        },
        {
          "internalType": "string",
          "name": "instagram",
          "type": "string"
        }
      ],
      "name": "createArtist",
      "outputs": [
        {
          "internalType": "address",
          "name": "",
          "type": "address"
        },
        {
          "internalType": "uint256",
          "name": "",
          "type": "uint256"
        }
      ],
      "stateMutability": "nonpayable",
      "type": "function"
    },
    {
      "inputs": [],
      "name": "initialize",
      "outputs": [],
      "stateMutability": "nonpayable",
      "type": "function"
    },
    {
      "inputs": [],
      "name": "owner",
      "outputs": [
        {
          "internalType": "address",
          "name": "",
          "type": "address"
        }
      ],
      "stateMutability": "view",
      "type": "function"
    },
    {
      "inputs": [],
      "name": "renounceOwnership",
      "outputs": [],
      "stateMutability": "nonpayable",
      "type": "function"
    },
    {
      "inputs": [
        {
          "internalType": "address",
          "name": "_newAdmin",
          "type": "address"
        }
      ],
      "name": "setAdmin",
      "outputs": [],
      "stateMutability": "nonpayable",
      "type": "function"
    },
    {
      "inputs": [
        {
          "internalType": "string",
          "name": "baseURI_",
          "type": "string"
        }
      ],
      "name": "setBaseURI",
      "outputs": [],
      "stateMutability": "nonpayable",
      "type": "function"
    },
    {
      "inputs": [
        {
          "internalType": "address",
          "name": "newOwner",
          "type": "address"
        }
      ],
      "name": "transferOwnership",
      "outputs": [],
      "stateMutability": "nonpayable",
      "type": "function"
    },
    {
      "inputs": [
        {
          "internalType": "address",
          "name": "newImplementation",
          "type": "address"
        }
      ],
      "name": "upgradeTo",
      "outputs": [],
      "stateMutability": "nonpayable",
      "type": "function"
    },
    {
      "inputs": [
        {
          "internalType": "address",
          "name": "newImplementation",
          "type": "address"
        },
        {
          "internalType": "bytes",
          "name": "data",
          "type": "bytes"
        }
      ],
      "name": "upgradeToAndCall",
      "outputs": [],
      "stateMutability": "payable",
      "type": "function"
    }
  ],
  "bytecode": "0x60a06040523060601b60805234801561001757600080fd5b5060805160601c61513961004b600039600081816102d801528181610324015281816103b601526103f901526151396000f3fe608060405260043610620000d45760003560e01c80637e2ec6d0116200008b578063b16a43f01162000061578063b16a43f0146200021c578063f2fde38b1462000241578063f851a4401462000266578063fb0cf2cc146200028857620000d4565b80637e2ec6d014620001a95780638129fc1c14620001e45780638da5cb5b14620001fc57620000d4565b80633659cfe614620000d95780634f1ef286146200010057806355f804b314620001175780636c0360eb146200013c578063704b6c02146200016c578063715018a61462000191575b600080fd5b348015620000e657600080fd5b50620000fe620000f83660046200130c565b620002cd565b005b620000fe6200011136600462001329565b620003ab565b3480156200012457600080fd5b50620000fe620001363660046200138f565b62000471565b3480156200014957600080fd5b5062000154620004f0565b60405162000163919062001672565b60405180910390f35b3480156200017957600080fd5b50620000fe6200018b3660046200130c565b62000586565b3480156200019e57600080fd5b50620000fe62000612565b348015620001b657600080fd5b5060cb54620001cb906001600160a01b031681565b6040516001600160a01b03909116815260200162000163565b348015620001f157600080fd5b50620000fe6200064d565b3480156200020957600080fd5b506097546001600160a01b0316620001cb565b3480156200022957600080fd5b50620001cb6200023b36600462001424565b6200084f565b3480156200024e57600080fd5b50620000fe620002603660046200130c565b6200087a565b3480156200027357600080fd5b5060ca54620001cb906001600160a01b031681565b3480156200029557600080fd5b50620002ad620002a7366004620013c6565b62000919565b604080516001600160a01b03909316835260208301919091520162000163565b306001600160a01b037f0000000000000000000000000000000000000000000000000000000000000000161415620003225760405162461bcd60e51b8152600401620003199062001687565b60405180910390fd5b7f00000000000000000000000000000000000000000000000000000000000000006001600160a01b03166200035662000ba2565b6001600160a01b0316146200037f5760405162461bcd60e51b81526004016200031990620016d3565b6200038a8162000bd0565b60408051600080825260208201909252620003a89183919062000bfd565b50565b306001600160a01b037f0000000000000000000000000000000000000000000000000000000000000000161415620003f75760405162461bcd60e51b8152600401620003199062001687565b7f00000000000000000000000000000000000000000000000000000000000000006001600160a01b03166200042b62000ba2565b6001600160a01b031614620004545760405162461bcd60e51b81526004016200031990620016d3565b6200045f8262000bd0565b6200046d8282600162000bfd565b5050565b6097546001600160a01b031633148062000495575060ca546001600160a01b031633145b620004db5760405162461bcd60e51b815260206004820152601560248201527434b73b30b634b21030baba3437b934bd30ba34b7b760591b604482015260640162000319565b80516200046d9060cd90602084019062001185565b60cd8054620004ff906200180c565b80601f01602080910402602001604051908101604052809291908181526020018280546200052d906200180c565b80156200057e5780601f1062000552576101008083540402835291602001916200057e565b820191906000526020600020905b8154815290600101906020018083116200056057829003601f168201915b505050505081565b6097546001600160a01b0316331480620005aa575060ca546001600160a01b031633145b620005f05760405162461bcd60e51b815260206004820152601560248201527434b73b30b634b21030baba3437b934bd30ba34b7b760591b604482015260640162000319565b60ca80546001600160a01b0319166001600160a01b0392909216919091179055565b6097546001600160a01b031633146200063f5760405162461bcd60e51b815260040162000319906200171f565b6200064b600062000d59565b565b600054610100900460ff166200066a5760005460ff16156200066e565b303b155b620006d35760405162461bcd60e51b815260206004820152602e60248201527f496e697469616c697a61626c653a20636f6e747261637420697320616c72656160448201526d191e481a5b9a5d1a585b1a5e995960921b606482015260840162000319565b600054610100900460ff16158015620006ff576000805460ff1961ff0019909116610100171660011790555b6200070962000dab565b60ca80546001600160a01b031916331790556040516000906200072c9062001214565b604051809103906000f08015801562000749573d6000803e3d6000fd5b50604051620007589062001222565b6001600160a01b039091168152602001604051809103906000f08015801562000785573d6000803e3d6000fd5b5060405163f2fde38b60e01b81523360048201529091506001600160a01b0382169063f2fde38b90602401600060405180830381600087803b158015620007cb57600080fd5b505af1158015620007e0573d6000803e3d6000fd5b505060cb80546001600160a01b0319166001600160a01b038516179055505060c980546001019055604051806060016040528060228152602001620050bb602291398051620008389160cd9160209091019062001185565b50508015620003a8576000805461ff001916905550565b60cc81815481106200086057600080fd5b6000918252602090912001546001600160a01b0316905081565b6097546001600160a01b03163314620008a75760405162461bcd60e51b815260040162000319906200171f565b6001600160a01b0381166200090e5760405162461bcd60e51b815260206004820152602660248201527f4f776e61626c653a206e6577206f776e657220697320746865207a65726f206160448201526564647265737360d01b606482015260840162000319565b620003a88162000d59565b60008060008451116200095c5760405162461bcd60e51b815260206004820152600a602482015269456d707479206e616d6560b01b604482015260640162000319565b6000835111620009a15760405162461bcd60e51b815260206004820152600f60248201526e456d70747920696e7374616772616d60881b604482015260640162000319565b6000620009af60c962000e23565b90506000620009be8262000e2b565b604051602001620009d091906200155f565b60405160208183030381529060405290506000620009ee8362000e2b565b60405160200162000a00919062001593565b6040516020818303038152906040529050600060cd62000a208562000e2b565b60405160200162000a33929190620014a7565b60408051601f198184030181529082905260cb5460ca549193506000926001600160a01b0391821692636b78cacf60e01b9262000a829291169089908e908e908b908b908b90602401620015e5565b60408051601f198184030181529181526020820180516001600160e01b03166001600160e01b031990941693909317909252905162000ac19062001230565b62000ace929190620015bf565b604051809103906000f08015801562000aeb573d6000803e3d6000fd5b5060cc80546001810182556000919091527f47197230e1e4b29fc0bd84d7d78966c0925452aff72a2a121538b102457e9ebe0180546001600160a01b0319166001600160a01b0383169081179091559091507f23748b43b77f98380e738976c6324996908ffc1989994dd3c68631c87a65a7c062000b6a60c962000e23565b8b8660405162000b7d9392919062001754565b60405180910390a262000b9460c980546001019055565b989397509295505050505050565b7f360894a13ba1a3210667c828492db98dca3e2076cc3735a920a3ca505d382bbc546001600160a01b031690565b6097546001600160a01b03163314620003a85760405162461bcd60e51b815260040162000319906200171f565b600062000c0962000ba2565b905062000c168462000f63565b60008351118062000c245750815b1562000c385762000c3684846200100a565b505b7f4910fdfa16fed3260ed0e7147f7cc6da11a60208b5b9406d12a635614ffd9143805460ff1662000d5257805460ff191660011781556040516001600160a01b038316602482015262000cba90869060440160408051601f198184030181529190526020810180516001600160e01b0316631b2ce7f360e11b1790526200100a565b50805460ff1916815562000ccd62000ba2565b6001600160a01b0316826001600160a01b03161462000d475760405162461bcd60e51b815260206004820152602f60248201527f45524331393637557067726164653a207570677261646520627265616b73206660448201526e75727468657220757067726164657360881b606482015260840162000319565b62000d5285620010fe565b5050505050565b609780546001600160a01b038381166001600160a01b0319831681179093556040519116919082907f8be0079c531659141344cd1fd0a4f28419497f9722a3daafe3b4186f6b6457e090600090a35050565b600054610100900460ff1662000e185760405162461bcd60e51b815260206004820152602b60248201527f496e697469616c697a61626c653a20636f6e7472616374206973206e6f74206960448201526a6e697469616c697a696e6760a81b606482015260840162000319565b6200064b3362000d59565b80545b919050565b60608162000e5257506040805180820190915260018152600360fc1b602082015262000e26565b8160005b811562000e82578062000e698162001849565b915062000e7a9050600a83620017a8565b915062000e56565b60008167ffffffffffffffff81111562000eac57634e487b7160e01b600052604160045260246000fd5b6040519080825280601f01601f19166020018201604052801562000ed7576020820181803683370190505b5090505b841562000f5b5762000eef600183620017bf565b915062000efe600a8662001867565b62000f0b9060306200178d565b60f81b81838151811062000f2f57634e487b7160e01b600052603260045260246000fd5b60200101906001600160f81b031916908160001a90535062000f53600a86620017a8565b945062000edb565b949350505050565b803b62000fc95760405162461bcd60e51b815260206004820152602d60248201527f455243313936373a206e657720696d706c656d656e746174696f6e206973206e60448201526c1bdd08184818dbdb9d1c9858dd609a1b606482015260840162000319565b7f360894a13ba1a3210667c828492db98dca3e2076cc3735a920a3ca505d382bbc80546001600160a01b0319166001600160a01b0392909216919091179055565b6060823b6200106b5760405162461bcd60e51b815260206004820152602660248201527f416464726573733a2064656c65676174652063616c6c20746f206e6f6e2d636f6044820152651b9d1c9858dd60d21b606482015260840162000319565b600080846001600160a01b03168460405162001088919062001489565b600060405180830381855af49150503d8060008114620010c5576040519150601f19603f3d011682016040523d82523d6000602084013e620010ca565b606091505b5091509150620010f58282604051806060016040528060278152602001620050dd6027913962001140565b95945050505050565b620011098162000f63565b6040516001600160a01b038216907fbc7cd75a20ee27fd9adebab32041f755214dbc6bffa90cc0225b39da2e5c2d3b90600090a250565b60608315620011515750816200117e565b825115620011625782518084602001fd5b8160405162461bcd60e51b815260040162000319919062001672565b9392505050565b82805462001193906200180c565b90600052602060002090601f016020900481019282620011b7576000855562001202565b82601f10620011d257805160ff191683800117855562001202565b8280016001018555821562001202579182015b8281111562001202578251825591602001919060010190620011e5565b50620012109291506200123e565b5090565b61296880620018c183390190565b61050a806200422983390190565b610988806200473383390190565b5b808211156200121057600081556001016200123f565b600067ffffffffffffffff80841115620012735762001273620018aa565b604051601f8501601f19908116603f011681019082821181831017156200129e576200129e620018aa565b81604052809350858152868686011115620012b857600080fd5b858560208301376000602087830101525050509392505050565b80356001600160a01b038116811462000e2657600080fd5b600082601f830112620012fb578081fd5b6200117e8383356020850162001255565b6000602082840312156200131e578081fd5b6200117e82620012d2565b600080604083850312156200133c578081fd5b6200134783620012d2565b9150602083013567ffffffffffffffff81111562001363578182fd5b8301601f8101851362001374578182fd5b620013858582356020840162001255565b9150509250929050565b600060208284031215620013a1578081fd5b813567ffffffffffffffff811115620013b8578182fd5b62000f5b84828501620012ea565b60008060408385031215620013d9578182fd5b823567ffffffffffffffff80821115620013f1578384fd5b620013ff86838701620012ea565b9350602085013591508082111562001415578283fd5b506200138585828601620012ea565b60006020828403121562001436578081fd5b5035919050565b6000815180845262001457816020860160208601620017d9565b601f01601f19169290920160200192915050565b600081516200147f818560208601620017d9565b9290920192915050565b600082516200149d818460208701620017d9565b9190910192915050565b8254600090819060028104600180831680620014c457607f831692505b6020808410821415620014e557634e487b7160e01b87526022600452602487fd5b818015620014fc57600181146200150e576200153c565b60ff198616895284890196506200153c565b60008b815260209020885b86811015620015345781548b82015290850190830162001519565b505084890196505b505050505050620010f56200155282866200146b565b602f60f81b815260010190565b600069029bab832b92a393ab2960b51b825282516200158681600a850160208701620017d9565b91909101600a0192915050565b60006114d560f21b82528251620015b2816002850160208701620017d9565b9190910160020192915050565b6001600160a01b038316815260406020820181905260009062000f5b908301846200143d565b600060018060a01b038916825287602083015260e060408301526200160e60e08301886200143d565b82810360608401526200162281886200143d565b905082810360808401526200163881876200143d565b905082810360a08401526200164e81866200143d565b905082810360c08401526200166481856200143d565b9a9950505050505050505050565b6000602082526200117e60208301846200143d565b6020808252602c908201527f46756e6374696f6e206d7573742062652063616c6c6564207468726f7567682060408201526b19195b1959d85d1958d85b1b60a21b606082015260800190565b6020808252602c908201527f46756e6374696f6e206d7573742062652063616c6c6564207468726f7567682060408201526b6163746976652070726f787960a01b606082015260800190565b6020808252818101527f4f776e61626c653a2063616c6c6572206973206e6f7420746865206f776e6572604082015260600190565b6000848252606060208301526200176f60608301856200143d565b82810360408401526200178381856200143d565b9695505050505050565b60008219821115620017a357620017a36200187e565b500190565b600082620017ba57620017ba62001894565b500490565b600082821015620017d457620017d46200187e565b500390565b60005b83811015620017f6578181015183820152602001620017dc565b8381111562001806576000848401525b50505050565b6002810460018216806200182157607f821691505b602082108114156200184357634e487b7160e01b600052602260045260246000fd5b50919050565b60006000198214156200186057620018606200187e565b5060010190565b60008262001879576200187962001894565b500690565b634e487b7160e01b600052601160045260246000fd5b634e487b7160e01b600052601260045260246000fd5b634e487b7160e01b600052604160045260246000fdfe608060405234801561001057600080fd5b50612948806100206000396000f3fe60806040526004361061020f5760003560e01c80636352211e11610118578063a22cb465116100a0578063e8a3d4851161006f578063e8a3d4851461060c578063e985e9c514610621578063eb91d37e1461066a578063f2fde38b1461067f578063fc622b661461069f5761020f565b8063a22cb46514610597578063b88d4fde146105b7578063c87b56dd146105d7578063cd3293de146105f75761020f565b8063715018a6116100e7578063715018a6146105275780638456cb591461053c5780638da5cb5b1461055157806394bf804d1461056f57806395d89b41146105825761020f565b80636352211e146104a75780636b78cacf146104c757806370480275146104e757806370a08231146105075761020f565b80633ccfd60b1161019b57806343bc16121161016a57806343bc16121461041657806354fd4d501461043a57806355f804b31461044f5780635c975abb1461046f5780635de42985146104875761020f565b80633ccfd60b146103ac5780633f4ba83a146103c1578063415dc8e6146103d657806342842e0e146103f65761020f565b8063150b7a02116101e2578063150b7a02146102c55780631785f53c1461030a57806318160ddd1461032a57806323b872dd1461034d5780632a55205a1461036d5761020f565b806301ffc9a71461021457806306fdde0314610249578063081812fc1461026b578063095ea7b3146102a3575b600080fd5b34801561022057600080fd5b5061023461022f366004612416565b6106bf565b60405190151581526020015b60405180910390f35b34801561025557600080fd5b5061025e610713565b604051610240919061261f565b34801561027757600080fd5b5061028b6102863660046124e2565b6107a5565b6040516001600160a01b039091168152602001610240565b3480156102af57600080fd5b506102c36102be366004612305565b61083f565b005b3480156102d157600080fd5b506102f16102e03660046121bd565b630a85bd0160e11b95945050505050565b6040516001600160e01b03199091168152602001610240565b34801561031657600080fd5b506102c3610325366004612129565b610955565b34801561033657600080fd5b5061033f6109a1565b604051908152602001610240565b34801561035957600080fd5b506102c361036836600461217d565b6109be565b34801561037957600080fd5b5061038d61038836600461251e565b6109ef565b604080516001600160a01b039093168352602083019190915201610240565b3480156103b857600080fd5b506102c3610a53565b3480156103cd57600080fd5b506102c3610ad4565b3480156103e257600080fd5b506102c36103f1366004612305565b610b08565b34801561040257600080fd5b506102c361041136600461217d565b610bb1565b34801561042257600080fd5b5061042b610bcc565b60405161024093929190612782565b34801561044657600080fd5b5061033f600181565b34801561045b57600080fd5b506102c361046a36600461244e565b610cf3565b34801561047b57600080fd5b5060c95460ff16610234565b34801561049357600080fd5b506102c36104a23660046124fa565b610d31565b3480156104b357600080fd5b5061028b6104c23660046124e2565b610dcf565b3480156104d357600080fd5b506102c36104e2366004612330565b610e46565b3480156104f357600080fd5b506102c3610502366004612129565b610fa1565b34801561051357600080fd5b5061033f610522366004612129565b610ff0565b34801561053357600080fd5b506102c3611077565b34801561054857600080fd5b506102c36110ab565b34801561055d57600080fd5b506033546001600160a01b031661028b565b6102c361057d3660046124fa565b6110dd565b34801561058e57600080fd5b5061025e61124a565b3480156105a357600080fd5b506102c36105b23660046122d4565b611259565b3480156105c357600080fd5b506102c36105d2366004612257565b611264565b3480156105e357600080fd5b5061025e6105f23660046124e2565b61129c565b34801561060357600080fd5b506102c3611353565b34801561061857600080fd5b5061025e6113ef565b34801561062d57600080fd5b5061023461063c366004612145565b6001600160a01b039182166000908152609c6020908152604080832093909416825291909152205460ff1690565b34801561067657600080fd5b5061033f61141d565b34801561068b57600080fd5b506102c361069a366004612129565b611448565b3480156106ab57600080fd5b506102c36106ba366004612481565b6114e0565b60006001600160e01b031982166380ac58cd60e01b14806106f057506001600160e01b03198216635b5e139f60e01b145b8061070b57506301ffc9a760e01b6001600160e01b03198316145b90505b919050565b6060609780546107229061283b565b80601f016020809104026020016040519081016040528092919081815260200182805461074e9061283b565b801561079b5780601f106107705761010080835404028352916020019161079b565b820191906000526020600020905b81548152906001019060200180831161077e57829003601f168201915b5050505050905090565b6000818152609960205260408120546001600160a01b03166108235760405162461bcd60e51b815260206004820152602c60248201527f4552433732313a20617070726f76656420717565727920666f72206e6f6e657860448201526b34b9ba32b73a103a37b5b2b760a11b60648201526084015b60405180910390fd5b506000908152609b60205260409020546001600160a01b031690565b600061084a82610dcf565b9050806001600160a01b0316836001600160a01b031614156108b85760405162461bcd60e51b815260206004820152602160248201527f4552433732313a20617070726f76616c20746f2063757272656e74206f776e656044820152603960f91b606482015260840161081a565b336001600160a01b03821614806108d457506108d4813361063c565b6109465760405162461bcd60e51b815260206004820152603860248201527f4552433732313a20617070726f76652063616c6c6572206973206e6f74206f7760448201527f6e6572206e6f7220617070726f76656420666f7220616c6c0000000000000000606482015260840161081a565b610950838361154e565b505050565b6033546001600160a01b0316331461097f5760405162461bcd60e51b815260040161081a90612684565b6001600160a01b0316600090815261012f60205260409020805460ff19169055565b600060016109af61012d5490565b6109b991906127f8565b905090565b6109c833826115bc565b6109e45760405162461bcd60e51b815260040161081a906126b9565b6109508383836116b3565b6101315460009081906001600160a01b0316610a1b575050610131546001600160a01b03166000610a4c565b61013154610130546001600160a01b039091169061271090610a3d90866127d9565b610a4791906127c5565b915091505b9250929050565b6033546001600160a01b0316331480610a7c575033600090815261012f602052604090205460ff165b610a985760405162461bcd60e51b815260040161081a90612755565b6033546040516001600160a01b03909116904780156108fc02916000818181858888f19350505050158015610ad1573d6000803e3d6000fd5b50565b6033546001600160a01b03163314610afe5760405162461bcd60e51b815260040161081a90612684565b610b0661185e565b565b6033546001600160a01b0316331480610b31575033600090815261012f602052604090205460ff165b610b4d5760405162461bcd60e51b815260040161081a90612755565b6033546001600160a01b0316331480610b76575033600090815261012f602052604090205460ff165b610b925760405162461bcd60e51b815260040161081a90612755565b610bad308383604051806020016040528060008152506118f1565b5050565b61095083838360405180602001604052806000815250611264565b61013280546101338054919291610be29061283b565b80601f0160208091040260200160405190810160405280929190818152602001828054610c0e9061283b565b8015610c5b5780601f10610c3057610100808354040283529160200191610c5b565b820191906000526020600020905b815481529060010190602001808311610c3e57829003601f168201915b505050505090806002018054610c709061283b565b80601f0160208091040260200160405190810160405280929190818152602001828054610c9c9061283b565b8015610ce95780601f10610cbe57610100808354040283529160200191610ce9565b820191906000526020600020905b815481529060010190602001808311610ccc57829003601f168201915b5050505050905083565b6033546001600160a01b03163314610d1d5760405162461bcd60e51b815260040161081a90612684565b8051610bad9061012e906020840190611fe9565b6033546001600160a01b03163314610d5b5760405162461bcd60e51b815260040161081a90612684565b612710821115610da65760405162461bcd60e51b815260206004820152601660248201527557726f6e6720726f79616c74794250532076616c756560501b604482015260640161081a565b6101309190915561013180546001600160a01b0319166001600160a01b03909216919091179055565b6000818152609960205260408120546001600160a01b03168061070b5760405162461bcd60e51b815260206004820152602960248201527f4552433732313a206f776e657220717565727920666f72206e6f6e657869737460448201526832b73a103a37b5b2b760b91b606482015260840161081a565b600054610100900460ff16610e615760005460ff1615610e65565b303b155b610ec85760405162461bcd60e51b815260206004820152602e60248201527f496e697469616c697a61626c653a20636f6e747261637420697320616c72656160448201526d191e481a5b9a5d1a585b1a5e995960921b606482015260840161081a565b600054610100900460ff16158015610ef3576000805460ff1961ff0019909116610100171660011790555b610efb611924565b610f05848461196b565b610f0e886119b9565b8151610f229061012e906020850190611fe9565b506127106101305561013180546001600160a01b0319166001600160a01b038a161790556101328790558551610f6090610133906020890190611fe9565b508451610f7590610134906020880190611fe9565b50610f8561012d80546001019055565b8015610f97576000805461ff00191690555b5050505050505050565b6033546001600160a01b03163314610fcb5760405162461bcd60e51b815260040161081a90612684565b6001600160a01b0316600090815261012f60205260409020805460ff19166001179055565b60006001600160a01b03821661105b5760405162461bcd60e51b815260206004820152602a60248201527f4552433732313a2062616c616e636520717565727920666f7220746865207a65604482015269726f206164647265737360b01b606482015260840161081a565b506001600160a01b03166000908152609a602052604090205490565b6033546001600160a01b031633146110a15760405162461bcd60e51b815260040161081a90612684565b610b0660006119b9565b6033546001600160a01b031633146110d55760405162461bcd60e51b815260040161081a90612684565b610b06611a0b565b60c95460ff16156111235760405162461bcd60e51b815260206004820152601060248201526f14185d5cd8589b194e881c185d5cd95960821b604482015260640161081a565b600082116111665760405162461bcd60e51b815260206004820152601060248201526f105b5bdd5b9d081d1bdbc81cdb585b1b60821b604482015260640161081a565b60148211156111a85760405162461bcd60e51b815260206004820152600e60248201526d416d6f756e7420746f6f2062696760901b604482015260640161081a565b816111b161141d565b6111bb91906127d9565b3410156112005760405162461bcd60e51b8152602060048201526013602482015272139bdd08195b9bdd59da08115512081cd95b9d606a1b604482015260640161081a565b60005b82811015610950576112298261121961012d5490565b6112249060016127ad565b611a86565b61123861012d80546001019055565b8061124281612876565b915050611203565b6060609880546107229061283b565b610bad338383611aa0565b61126e33836115bc565b61128a5760405162461bcd60e51b815260040161081a906126b9565b611296848484846118f1565b50505050565b6000818152609960205260409020546060906001600160a01b031661131b5760405162461bcd60e51b815260206004820152602f60248201527f4552433732314d657461646174613a2055524920717565727920666f72206e6f60448201526e3732bc34b9ba32b73a103a37b5b2b760891b606482015260840161081a565b611323611b6f565b61132c83611b7f565b60405160200161133d929190612599565b6040516020818303038152906040529050919050565b6033546001600160a01b031633148061137c575033600090815261012f602052604090205460ff165b6113985760405162461bcd60e51b815260040161081a90612755565b6033546001600160a01b031633146113c25760405162461bcd60e51b815260040161081a90612755565b6113e0306113d061012d5490565b6113db9060016127ad565b611c9a565b610b0661012d80546001019055565b60606113f9611b6f565b604051602001611409919061256b565b604051602081830303815290604052905090565b60006114276109a1565b61143790655af3107a40006127d9565b6109b99066071afd498d00006127ad565b6033546001600160a01b031633146114725760405162461bcd60e51b815260040161081a90612684565b6001600160a01b0381166114d75760405162461bcd60e51b815260206004820152602660248201527f4f776e61626c653a206e6577206f776e657220697320746865207a65726f206160448201526564647265737360d01b606482015260840161081a565b610ad1816119b9565b6033546001600160a01b0316331480611509575033600090815261012f602052604090205460ff165b6115255760405162461bcd60e51b815260040161081a90612755565b815161153990610133906020850190611fe9565b50805161095090610134906020840190611fe9565b6000818152609b6020526040902080546001600160a01b0319166001600160a01b038416908117909155819061158382610dcf565b6001600160a01b03167f8c5be1e5ebec7d5bd14f71427d1e84f3dd0314c0f7b2291e5b200ac8c7c3b92560405160405180910390a45050565b6000818152609960205260408120546001600160a01b03166116355760405162461bcd60e51b815260206004820152602c60248201527f4552433732313a206f70657261746f7220717565727920666f72206e6f6e657860448201526b34b9ba32b73a103a37b5b2b760a11b606482015260840161081a565b600061164083610dcf565b9050806001600160a01b0316846001600160a01b0316148061167b5750836001600160a01b0316611670846107a5565b6001600160a01b0316145b806116ab57506001600160a01b038082166000908152609c602090815260408083209388168352929052205460ff165b949350505050565b826001600160a01b03166116c682610dcf565b6001600160a01b03161461172e5760405162461bcd60e51b815260206004820152602960248201527f4552433732313a207472616e73666572206f6620746f6b656e2074686174206960448201526839903737ba1037bbb760b91b606482015260840161081a565b6001600160a01b0382166117905760405162461bcd60e51b8152602060048201526024808201527f4552433732313a207472616e7366657220746f20746865207a65726f206164646044820152637265737360e01b606482015260840161081a565b61179b838383611de8565b6117a660008261154e565b6001600160a01b0383166000908152609a602052604081208054600192906117cf9084906127f8565b90915550506001600160a01b0382166000908152609a602052604081208054600192906117fd9084906127ad565b909155505060008181526099602052604080822080546001600160a01b0319166001600160a01b0386811691821790925591518493918716917fddf252ad1be2c89b69c2b068fc378daa952ba7f163c4a11628f55a4df523b3ef91a4505050565b60c95460ff166118a75760405162461bcd60e51b815260206004820152601460248201527314185d5cd8589b194e881b9bdd081c185d5cd95960621b604482015260640161081a565b60c9805460ff191690557f5db9ee0a495bf2e6ff9c91a7834c1ba4fdd244a5e8aa4e537bd38aeae4b073aa335b6040516001600160a01b03909116815260200160405180910390a1565b6118fc8484846116b3565b61190884848484611e4f565b6112965760405162461bcd60e51b815260040161081a90612632565b600054610100900460ff1661194b5760405162461bcd60e51b815260040161081a9061270a565b611953611f5c565b61195b611f5c565b611963611f83565b610b06611f5c565b600054610100900460ff166119925760405162461bcd60e51b815260040161081a9061270a565b81516119a5906097906020850190611fe9565b508051610950906098906020840190611fe9565b603380546001600160a01b038381166001600160a01b0319831681179093556040519116919082907f8be0079c531659141344cd1fd0a4f28419497f9722a3daafe3b4186f6b6457e090600090a35050565b60c95460ff1615611a515760405162461bcd60e51b815260206004820152601060248201526f14185d5cd8589b194e881c185d5cd95960821b604482015260640161081a565b60c9805460ff191660011790557f62e78cea01bee320cd4e420270b5ea74000d11b0c9f74754ebdbfc544b05a2586118d43390565b610bad828260405180602001604052806000815250611fb6565b816001600160a01b0316836001600160a01b03161415611b025760405162461bcd60e51b815260206004820152601960248201527f4552433732313a20617070726f766520746f2063616c6c657200000000000000604482015260640161081a565b6001600160a01b038381166000818152609c6020908152604080832094871680845294825291829020805460ff191686151590811790915591519182527f17307eab39ab6107e8899845ad3d59bd9653f200f220920489ca2b5937696c31910160405180910390a3505050565b606061012e80546107229061283b565b606081611ba457506040805180820190915260018152600360fc1b602082015261070e565b8160005b8115611bce5780611bb881612876565b9150611bc79050600a836127c5565b9150611ba8565b60008167ffffffffffffffff811115611bf757634e487b7160e01b600052604160045260246000fd5b6040519080825280601f01601f191660200182016040528015611c21576020820181803683370190505b5090505b84156116ab57611c366001836127f8565b9150611c43600a86612891565b611c4e9060306127ad565b60f81b818381518110611c7157634e487b7160e01b600052603260045260246000fd5b60200101906001600160f81b031916908160001a905350611c93600a866127c5565b9450611c25565b6001600160a01b038216611cf05760405162461bcd60e51b815260206004820181905260248201527f4552433732313a206d696e7420746f20746865207a65726f2061646472657373604482015260640161081a565b6000818152609960205260409020546001600160a01b031615611d555760405162461bcd60e51b815260206004820152601c60248201527f4552433732313a20746f6b656e20616c7265616479206d696e74656400000000604482015260640161081a565b611d6160008383611de8565b6001600160a01b0382166000908152609a60205260408120805460019290611d8a9084906127ad565b909155505060008181526099602052604080822080546001600160a01b0319166001600160a01b03861690811790915590518392907fddf252ad1be2c89b69c2b068fc378daa952ba7f163c4a11628f55a4df523b3ef908290a45050565b60c95460ff16156109505760405162461bcd60e51b815260206004820152602b60248201527f4552433732315061757361626c653a20746f6b656e207472616e73666572207760448201526a1a1a5b19481c185d5cd95960aa1b606482015260840161081a565b60006001600160a01b0384163b15611f5157604051630a85bd0160e11b81526001600160a01b0385169063150b7a0290611e939033908990889088906004016125e2565b602060405180830381600087803b158015611ead57600080fd5b505af1925050508015611edd575060408051601f3d908101601f19168201909252611eda91810190612432565b60015b611f37573d808015611f0b576040519150601f19603f3d011682016040523d82523d6000602084013e611f10565b606091505b508051611f2f5760405162461bcd60e51b815260040161081a90612632565b805181602001fd5b6001600160e01b031916630a85bd0160e11b1490506116ab565b506001949350505050565b600054610100900460ff16610b065760405162461bcd60e51b815260040161081a9061270a565b600054610100900460ff16611faa5760405162461bcd60e51b815260040161081a9061270a565b60c9805460ff19169055565b611fc08383611c9a565b611fcd6000848484611e4f565b6109505760405162461bcd60e51b815260040161081a90612632565b828054611ff59061283b565b90600052602060002090601f016020900481019282612017576000855561205d565b82601f1061203057805160ff191683800117855561205d565b8280016001018555821561205d579182015b8281111561205d578251825591602001919060010190612042565b5061206992915061206d565b5090565b5b80821115612069576000815560010161206e565b600067ffffffffffffffff8084111561209d5761209d6128d1565b604051601f8501601f19908116603f011681019082821181831017156120c5576120c56128d1565b816040528093508581528686860111156120de57600080fd5b858560208301376000602087830101525050509392505050565b803561070e816128e7565b600082601f830112612113578081fd5b61212283833560208501612082565b9392505050565b60006020828403121561213a578081fd5b8135612122816128e7565b60008060408385031215612157578081fd5b8235612162816128e7565b91506020830135612172816128e7565b809150509250929050565b600080600060608486031215612191578081fd5b833561219c816128e7565b925060208401356121ac816128e7565b929592945050506040919091013590565b6000806000806000608086880312156121d4578081fd5b85356121df816128e7565b945060208601356121ef816128e7565b935060408601359250606086013567ffffffffffffffff80821115612212578283fd5b818801915088601f830112612225578283fd5b813581811115612233578384fd5b896020828501011115612244578384fd5b9699959850939650602001949392505050565b6000806000806080858703121561226c578384fd5b8435612277816128e7565b93506020850135612287816128e7565b925060408501359150606085013567ffffffffffffffff8111156122a9578182fd5b8501601f810187136122b9578182fd5b6122c887823560208401612082565b91505092959194509250565b600080604083850312156122e6578182fd5b82356122f1816128e7565b915060208301358015158114612172578182fd5b60008060408385031215612317578182fd5b8235612322816128e7565b946020939093013593505050565b600080600080600080600060e0888a03121561234a578182fd5b612353886120f8565b965060208801359550604088013567ffffffffffffffff80821115612376578384fd5b6123828b838c01612103565b965060608a0135915080821115612397578384fd5b6123a38b838c01612103565b955060808a01359150808211156123b8578384fd5b6123c48b838c01612103565b945060a08a01359150808211156123d9578384fd5b6123e58b838c01612103565b935060c08a01359150808211156123fa578283fd5b506124078a828b01612103565b91505092959891949750929550565b600060208284031215612427578081fd5b8135612122816128fc565b600060208284031215612443578081fd5b8151612122816128fc565b60006020828403121561245f578081fd5b813567ffffffffffffffff811115612475578182fd5b6116ab84828501612103565b60008060408385031215612493578182fd5b823567ffffffffffffffff808211156124aa578384fd5b6124b686838701612103565b935060208501359150808211156124cb578283fd5b506124d885828601612103565b9150509250929050565b6000602082840312156124f3578081fd5b5035919050565b6000806040838503121561250c578182fd5b823591506020830135612172816128e7565b60008060408385031215612530578182fd5b50508035926020909101359150565b6000815180845261255781602086016020860161280f565b601f01601f19169290920160200192915050565b6000825161257d81846020870161280f565b691cdd1bdc99599c9bdb9d60b21b920191825250600a01919050565b600083516125ab81846020880161280f565b633539b7b760e11b908301908152602f60f81b600482015283516125d681600584016020880161280f565b01600501949350505050565b6001600160a01b03858116825284166020820152604081018390526080606082018190526000906126159083018461253f565b9695505050505050565b600060208252612122602083018461253f565b60208082526032908201527f4552433732313a207472616e7366657220746f206e6f6e20455243373231526560408201527131b2b4bb32b91034b6b83632b6b2b73a32b960711b606082015260800190565b6020808252818101527f4f776e61626c653a2063616c6c6572206973206e6f7420746865206f776e6572604082015260600190565b60208082526031908201527f4552433732313a207472616e736665722063616c6c6572206973206e6f74206f6040820152701ddb995c881b9bdc88185c1c1c9bdd9959607a1b606082015260800190565b6020808252602b908201527f496e697469616c697a61626c653a20636f6e7472616374206973206e6f74206960408201526a6e697469616c697a696e6760a81b606082015260800190565b60208082526013908201527227b7363c9030b236b4b71037b91037bbb732b960691b604082015260600190565b60008482526060602083015261279b606083018561253f565b8281036040840152612615818561253f565b600082198211156127c0576127c06128a5565b500190565b6000826127d4576127d46128bb565b500490565b60008160001904831182151516156127f3576127f36128a5565b500290565b60008282101561280a5761280a6128a5565b500390565b60005b8381101561282a578181015183820152602001612812565b838111156112965750506000910152565b60028104600182168061284f57607f821691505b6020821081141561287057634e487b7160e01b600052602260045260246000fd5b50919050565b600060001982141561288a5761288a6128a5565b5060010190565b6000826128a0576128a06128bb565b500690565b634e487b7160e01b600052601160045260246000fd5b634e487b7160e01b600052601260045260246000fd5b634e487b7160e01b600052604160045260246000fd5b6001600160a01b0381168114610ad157600080fd5b6001600160e01b031981168114610ad157600080fdfea2646970667358221220d75955e59114179e4297b07ae53f13b9dbe381c931b31ab76500b2e32c6a111264736f6c63430008020033608060405234801561001057600080fd5b5060405161050a38038061050a83398101604081905261002f91610148565b61003833610047565b61004181610097565b50610176565b600080546001600160a01b038381166001600160a01b0319831681178455604051919092169283917f8be0079c531659141344cd1fd0a4f28419497f9722a3daafe3b4186f6b6457e09190a35050565b6100aa8161014260201b61020a1760201c565b6101205760405162461bcd60e51b815260206004820152603360248201527f5570677261646561626c65426561636f6e3a20696d706c656d656e746174696f60448201527f6e206973206e6f74206120636f6e747261637400000000000000000000000000606482015260840160405180910390fd5b600180546001600160a01b0319166001600160a01b0392909216919091179055565b3b151590565b600060208284031215610159578081fd5b81516001600160a01b038116811461016f578182fd5b9392505050565b610385806101856000396000f3fe608060405234801561001057600080fd5b50600436106100575760003560e01c80633659cfe61461005c5780635c60da1b14610071578063715018a61461009a5780638da5cb5b146100a2578063f2fde38b146100b3575b600080fd5b61006f61006a3660046102ec565b6100c6565b005b6001546001600160a01b03165b6040516001600160a01b03909116815260200160405180910390f35b61006f610139565b6000546001600160a01b031661007e565b61006f6100c13660046102ec565b61016f565b6000546001600160a01b031633146100f95760405162461bcd60e51b81526004016100f09061031a565b60405180910390fd5b61010281610210565b6040516001600160a01b038216907fbc7cd75a20ee27fd9adebab32041f755214dbc6bffa90cc0225b39da2e5c2d3b90600090a250565b6000546001600160a01b031633146101635760405162461bcd60e51b81526004016100f09061031a565b61016d600061029c565b565b6000546001600160a01b031633146101995760405162461bcd60e51b81526004016100f09061031a565b6001600160a01b0381166101fe5760405162461bcd60e51b815260206004820152602660248201527f4f776e61626c653a206e6577206f776e657220697320746865207a65726f206160448201526564647265737360d01b60648201526084016100f0565b6102078161029c565b50565b3b151590565b803b61027a5760405162461bcd60e51b815260206004820152603360248201527f5570677261646561626c65426561636f6e3a20696d706c656d656e746174696f6044820152721b881a5cc81b9bdd08184818dbdb9d1c9858dd606a1b60648201526084016100f0565b600180546001600160a01b0319166001600160a01b0392909216919091179055565b600080546001600160a01b038381166001600160a01b0319831681178455604051919092169283917f8be0079c531659141344cd1fd0a4f28419497f9722a3daafe3b4186f6b6457e09190a35050565b6000602082840312156102fd578081fd5b81356001600160a01b0381168114610313578182fd5b9392505050565b6020808252818101527f4f776e61626c653a2063616c6c6572206973206e6f7420746865206f776e657260408201526060019056fea264697066735822122079c19affd2a298737dd33e2d98265a5a905c727152a21fdc64c9976d147cdd4664736f6c63430008020033608060405260405161098838038061098883398101604081905261002291610483565b61004d60017fa3f0ad74e5423aebfd80d3ef4346578335a9a72aeaee59ff6cb3582b35133d5161058e565b6000805160206109418339815191521461007757634e487b7160e01b600052600160045260246000fd5b6100838282600061008a565b50506105f3565b61009383610164565b6040516001600160a01b038416907f1cf3b03a6cf19fa2baba4df148e9dcabedea7f8a5c07840e207e5c089be95d3e90600090a26000825111806100d45750805b1561015f5761015d836001600160a01b0316635c60da1b6040518163ffffffff1660e01b815260040160206040518083038186803b15801561011557600080fd5b505afa158015610129573d6000803e3d6000fd5b505050506040513d601f19601f8201168201806040525081019061014d9190610469565b8361030460201b6100291760201c565b505b505050565b6101778161033060201b6100551760201c565b6101d65760405162461bcd60e51b815260206004820152602560248201527f455243313936373a206e657720626561636f6e206973206e6f74206120636f6e6044820152641d1c9858dd60da1b60648201526084015b60405180910390fd5b610259816001600160a01b0316635c60da1b6040518163ffffffff1660e01b815260040160206040518083038186803b15801561021257600080fd5b505afa158015610226573d6000803e3d6000fd5b505050506040513d601f19601f8201168201806040525081019061024a9190610469565b61033060201b6100551760201c565b6102be5760405162461bcd60e51b815260206004820152603060248201527f455243313936373a20626561636f6e20696d706c656d656e746174696f6e206960448201526f1cc81b9bdd08184818dbdb9d1c9858dd60821b60648201526084016101cd565b806102e360008051602061094183398151915260001b61033a60201b61005b1760201c565b80546001600160a01b0319166001600160a01b039290921691909117905550565b606061032983836040518060600160405280602781526020016109616027913961033d565b9392505050565b803b15155b919050565b90565b606061034884610330565b6103a35760405162461bcd60e51b815260206004820152602660248201527f416464726573733a2064656c65676174652063616c6c20746f206e6f6e2d636f6044820152651b9d1c9858dd60d21b60648201526084016101cd565b600080856001600160a01b0316856040516103be919061053f565b600060405180830381855af49150503d80600081146103f9576040519150601f19603f3d011682016040523d82523d6000602084013e6103fe565b606091505b50909250905061040f828286610419565b9695505050505050565b60608315610428575081610329565b8251156104385782518084602001fd5b8160405162461bcd60e51b81526004016101cd919061055b565b80516001600160a01b038116811461033557600080fd5b60006020828403121561047a578081fd5b61032982610452565b60008060408385031215610495578081fd5b61049e83610452565b60208401519092506001600160401b03808211156104ba578283fd5b818501915085601f8301126104cd578283fd5b8151818111156104df576104df6105dd565b604051601f8201601f19908116603f01168101908382118183101715610507576105076105dd565b8160405282815288602084870101111561051f578586fd5b6105308360208301602088016105b1565b80955050505050509250929050565b600082516105518184602087016105b1565b9190910192915050565b600060208252825180602084015261057a8160408501602087016105b1565b601f01601f19169190910160400192915050565b6000828210156105ac57634e487b7160e01b81526011600452602481fd5b500390565b60005b838110156105cc5781810151838201526020016105b4565b8381111561015d5750506000910152565b634e487b7160e01b600052604160045260246000fd5b61033f806106026000396000f3fe60806040523661001357610011610017565b005b6100115b61002761002261005e565b610106565b565b606061004e83836040518060600160405280602781526020016102e36027913961012a565b9392505050565b3b151590565b90565b60006100917fa3f0ad74e5423aebfd80d3ef4346578335a9a72aeaee59ff6cb3582b35133d50546001600160a01b031690565b6001600160a01b0316635c60da1b6040518163ffffffff1660e01b815260040160206040518083038186803b1580156100c957600080fd5b505afa1580156100dd573d6000803e3d6000fd5b505050506040513d601f19601f82011682018060405250810190610101919061023c565b905090565b3660008037600080366000845af43d6000803e808015610125573d6000f35b3d6000fd5b6060833b61018e5760405162461bcd60e51b815260206004820152602660248201527f416464726573733a2064656c65676174652063616c6c20746f206e6f6e2d636f6044820152651b9d1c9858dd60d21b60648201526084015b60405180910390fd5b600080856001600160a01b0316856040516101a99190610263565b600060405180830381855af49150503d80600081146101e4576040519150601f19603f3d011682016040523d82523d6000602084013e6101e9565b606091505b50915091506101f9828286610203565b9695505050505050565b6060831561021257508161004e565b8251156102225782518084602001fd5b8160405162461bcd60e51b8152600401610185919061027f565b60006020828403121561024d578081fd5b81516001600160a01b038116811461004e578182fd5b600082516102758184602087016102b2565b9190910192915050565b600060208252825180602084015261029e8160408501602087016102b2565b601f01601f19169190910160400192915050565b60005b838110156102cd5781810151838201526020016102b5565b838111156102dc576000848401525b5050505056fe416464726573733a206c6f772d6c6576656c2064656c65676174652063616c6c206661696c6564a26469706673582212203ef909e41db88873f26be67c240c285f9be6265bf7d50248a849dc80182aa37b64736f6c63430008020033a3f0ad74e5423aebfd80d3ef4346578335a9a72aeaee59ff6cb3582b35133d50416464726573733a206c6f772d6c6576656c2064656c65676174652063616c6c206661696c656468747470733a2f2f7375706572747275652e66616e732f6170692f6172746973742f416464726573733a206c6f772d6c6576656c2064656c65676174652063616c6c206661696c6564a2646970667358221220e4489c09746c52b742b117884f39d1487a2b1e5cd270415e9a64039e6434a46464736f6c63430008020033",
  "linkReferences": {},
  "deployedLinkReferences": {}
}