{
  "_format": "hh-sol-artifact-1",
  "contractName": "ForwardNFT",
  "sourceName": "contracts/ForwardNFT.sol",
  "abi": [
    {
      "anonymous": false,
      "inputs": [
        {
          "indexed": true,
          "internalType": "address",
          "name": "owner",
          "type": "address"
        },
        {
          "indexed": true,
          "internalType": "address",
          "name": "approved",
          "type": "address"
        },
        {
          "indexed": true,
          "internalType": "uint256",
          "name": "tokenId",
          "type": "uint256"
        }
      ],
      "name": "Approval",
      "type": "event"
    },
    {
      "anonymous": false,
      "inputs": [
        {
          "indexed": true,
          "internalType": "address",
          "name": "owner",
          "type": "address"
        },
        {
          "indexed": true,
          "internalType": "address",
          "name": "operator",
          "type": "address"
        },
        {
          "indexed": false,
          "internalType": "bool",
          "name": "approved",
          "type": "bool"
        }
      ],
      "name": "ApprovalForAll",
      "type": "event"
    },
    {
      "anonymous": false,
      "inputs": [
        {
          "indexed": true,
          "internalType": "address",
          "name": "previousOwner",
          "type": "address"
        },
        {
          "indexed": true,
          "internalType": "address",
          "name": "newOwner",
          "type": "address"
        }
      ],
      "name": "OwnershipTransferred",
      "type": "event"
    },
    {
      "anonymous": false,
      "inputs": [
        {
          "indexed": false,
          "internalType": "address",
          "name": "account",
          "type": "address"
        }
      ],
      "name": "Paused",
      "type": "event"
    },
    {
      "anonymous": false,
      "inputs": [
        {
          "indexed": true,
          "internalType": "address",
          "name": "from",
          "type": "address"
        },
        {
          "indexed": true,
          "internalType": "address",
          "name": "to",
          "type": "address"
        },
        {
          "indexed": true,
          "internalType": "uint256",
          "name": "tokenId",
          "type": "uint256"
        }
      ],
      "name": "Transfer",
      "type": "event"
    },
    {
      "anonymous": false,
      "inputs": [
        {
          "indexed": false,
          "internalType": "address",
          "name": "account",
          "type": "address"
        }
      ],
      "name": "Unpaused",
      "type": "event"
    },
    {
      "inputs": [
        {
          "internalType": "address",
          "name": "admin",
          "type": "address"
        }
      ],
      "name": "addAdmin",
      "outputs": [],
      "stateMutability": "nonpayable",
      "type": "function"
    },
    {
      "inputs": [
        {
          "internalType": "address",
          "name": "to",
          "type": "address"
        },
        {
          "internalType": "uint256",
          "name": "tokenId",
          "type": "uint256"
        }
      ],
      "name": "approve",
      "outputs": [],
      "stateMutability": "nonpayable",
      "type": "function"
    },
    {
      "inputs": [],
      "name": "artist",
      "outputs": [
        {
          "internalType": "uint256",
          "name": "id",
          "type": "uint256"
        },
        {
          "internalType": "string",
          "name": "name",
          "type": "string"
        },
        {
          "internalType": "string",
          "name": "instagram",
          "type": "string"
        }
      ],
      "stateMutability": "view",
      "type": "function"
    },
    {
      "inputs": [
        {
          "internalType": "address",
          "name": "owner",
          "type": "address"
        }
      ],
      "name": "balanceOf",
      "outputs": [
        {
          "internalType": "uint256",
          "name": "",
          "type": "uint256"
        }
      ],
      "stateMutability": "view",
      "type": "function"
    },
    {
      "inputs": [],
      "name": "contractURI",
      "outputs": [
        {
          "internalType": "string",
          "name": "",
          "type": "string"
        }
      ],
      "stateMutability": "view",
      "type": "function"
    },
    {
      "inputs": [
        {
          "internalType": "uint256",
          "name": "tokenId",
          "type": "uint256"
        }
      ],
      "name": "getApproved",
      "outputs": [
        {
          "internalType": "address",
          "name": "",
          "type": "address"
        }
      ],
      "stateMutability": "view",
      "type": "function"
    },
    {
      "inputs": [],
      "name": "getCurrentPrice",
      "outputs": [
        {
          "internalType": "uint256",
          "name": "",
          "type": "uint256"
        }
      ],
      "stateMutability": "view",
      "type": "function"
    },
    {
      "inputs": [
        {
          "internalType": "address",
          "name": "owner_",
          "type": "address"
        },
        {
          "internalType": "uint256",
          "name": "artistId_",
          "type": "uint256"
        },
        {
          "internalType": "string",
          "name": "artistName_",
          "type": "string"
        },
        {
          "internalType": "string",
          "name": "artistInstagram_",
          "type": "string"
        },
        {
          "internalType": "string",
          "name": "name_",
          "type": "string"
        },
        {
          "internalType": "string",
          "name": "symbol_",
          "type": "string"
        },
        {
          "internalType": "string",
          "name": "uri_",
          "type": "string"
        }
      ],
      "name": "initialize",
      "outputs": [],
      "stateMutability": "nonpayable",
      "type": "function"
    },
    {
      "inputs": [
        {
          "internalType": "address",
          "name": "owner",
          "type": "address"
        },
        {
          "internalType": "address",
          "name": "operator",
          "type": "address"
        }
      ],
      "name": "isApprovedForAll",
      "outputs": [
        {
          "internalType": "bool",
          "name": "",
          "type": "bool"
        }
      ],
      "stateMutability": "view",
      "type": "function"
    },
    {
      "inputs": [
        {
          "internalType": "uint256",
          "name": "amount",
          "type": "uint256"
        },
        {
          "internalType": "address",
          "name": "to",
          "type": "address"
        }
      ],
      "name": "mint",
      "outputs": [],
      "stateMutability": "payable",
      "type": "function"
    },
    {
      "inputs": [],
      "name": "name",
      "outputs": [
        {
          "internalType": "string",
          "name": "",
          "type": "string"
        }
      ],
      "stateMutability": "view",
      "type": "function"
    },
    {
      "inputs": [
        {
          "internalType": "address",
          "name": "",
          "type": "address"
        },
        {
          "internalType": "address",
          "name": "",
          "type": "address"
        },
        {
          "internalType": "uint256",
          "name": "",
          "type": "uint256"
        },
        {
          "internalType": "bytes",
          "name": "",
          "type": "bytes"
        }
      ],
      "name": "onERC721Received",
      "outputs": [
        {
          "internalType": "bytes4",
          "name": "",
          "type": "bytes4"
        }
      ],
      "stateMutability": "pure",
      "type": "function"
    },
    {
      "inputs": [],
      "name": "owner",
      "outputs": [
        {
          "internalType": "address",
          "name": "",
          "type": "address"
        }
      ],
      "stateMutability": "view",
      "type": "function"
    },
    {
      "inputs": [
        {
          "internalType": "uint256",
          "name": "tokenId",
          "type": "uint256"
        }
      ],
      "name": "ownerOf",
      "outputs": [
        {
          "internalType": "address",
          "name": "",
          "type": "address"
        }
      ],
      "stateMutability": "view",
      "type": "function"
    },
    {
      "inputs": [],
      "name": "pause",
      "outputs": [],
      "stateMutability": "nonpayable",
      "type": "function"
    },
    {
      "inputs": [],
      "name": "paused",
      "outputs": [
        {
          "internalType": "bool",
          "name": "",
          "type": "bool"
        }
      ],
      "stateMutability": "view",
      "type": "function"
    },
    {
      "inputs": [
        {
          "internalType": "address",
          "name": "admin",
          "type": "address"
        }
      ],
      "name": "removeAdmin",
      "outputs": [],
      "stateMutability": "nonpayable",
      "type": "function"
    },
    {
      "inputs": [],
      "name": "renounceOwnership",
      "outputs": [],
      "stateMutability": "nonpayable",
      "type": "function"
    },
    {
      "inputs": [],
      "name": "reserve",
      "outputs": [],
      "stateMutability": "nonpayable",
      "type": "function"
    },
    {
      "inputs": [
        {
          "internalType": "uint256",
          "name": "",
          "type": "uint256"
        },
        {
          "internalType": "uint256",
          "name": "salePrice",
          "type": "uint256"
        }
      ],
      "name": "royaltyInfo",
      "outputs": [
        {
          "internalType": "address",
          "name": "receiver",
          "type": "address"
        },
        {
          "internalType": "uint256",
          "name": "royaltyAmount",
          "type": "uint256"
        }
      ],
      "stateMutability": "view",
      "type": "function"
    },
    {
      "inputs": [
        {
          "internalType": "address",
          "name": "from",
          "type": "address"
        },
        {
          "internalType": "address",
          "name": "to",
          "type": "address"
        },
        {
          "internalType": "uint256",
          "name": "tokenId",
          "type": "uint256"
        }
      ],
      "name": "safeTransferFrom",
      "outputs": [],
      "stateMutability": "nonpayable",
      "type": "function"
    },
    {
      "inputs": [
        {
          "internalType": "address",
          "name": "from",
          "type": "address"
        },
        {
          "internalType": "address",
          "name": "to",
          "type": "address"
        },
        {
          "internalType": "uint256",
          "name": "tokenId",
          "type": "uint256"
        },
        {
          "internalType": "bytes",
          "name": "_data",
          "type": "bytes"
        }
      ],
      "name": "safeTransferFrom",
      "outputs": [],
      "stateMutability": "nonpayable",
      "type": "function"
    },
    {
      "inputs": [
        {
          "internalType": "address",
          "name": "operator",
          "type": "address"
        },
        {
          "internalType": "bool",
          "name": "approved",
          "type": "bool"
        }
      ],
      "name": "setApprovalForAll",
      "outputs": [],
      "stateMutability": "nonpayable",
      "type": "function"
    },
    {
      "inputs": [
        {
          "internalType": "string",
          "name": "_name",
          "type": "string"
        },
        {
          "internalType": "string",
          "name": "_instagram",
          "type": "string"
        }
      ],
      "name": "setArtist",
      "outputs": [],
      "stateMutability": "nonpayable",
      "type": "function"
    },
    {
      "inputs": [
        {
          "internalType": "string",
          "name": "baseURI",
          "type": "string"
        }
      ],
      "name": "setBaseURI",
      "outputs": [],
      "stateMutability": "nonpayable",
      "type": "function"
    },
    {
      "inputs": [
        {
          "internalType": "uint256",
          "name": "royaltyBPS",
          "type": "uint256"
        },
        {
          "internalType": "address payable",
          "name": "fundingRecipient",
          "type": "address"
        }
      ],
      "name": "setRoyalties",
      "outputs": [],
      "stateMutability": "nonpayable",
      "type": "function"
    },
    {
      "inputs": [
        {
          "internalType": "bytes4",
          "name": "interfaceId",
          "type": "bytes4"
        }
      ],
      "name": "supportsInterface",
      "outputs": [
        {
          "internalType": "bool",
          "name": "",
          "type": "bool"
        }
      ],
      "stateMutability": "view",
      "type": "function"
    },
    {
      "inputs": [],
      "name": "symbol",
      "outputs": [
        {
          "internalType": "string",
          "name": "",
          "type": "string"
        }
      ],
      "stateMutability": "view",
      "type": "function"
    },
    {
      "inputs": [
        {
          "internalType": "uint256",
          "name": "tokenId",
          "type": "uint256"
        }
      ],
      "name": "tokenURI",
      "outputs": [
        {
          "internalType": "string",
          "name": "",
          "type": "string"
        }
      ],
      "stateMutability": "view",
      "type": "function"
    },
    {
      "inputs": [],
      "name": "totalSupply",
      "outputs": [
        {
          "internalType": "uint256",
          "name": "",
          "type": "uint256"
        }
      ],
      "stateMutability": "view",
      "type": "function"
    },
    {
      "inputs": [
        {
          "internalType": "address",
          "name": "from",
          "type": "address"
        },
        {
          "internalType": "address",
          "name": "to",
          "type": "address"
        },
        {
          "internalType": "uint256",
          "name": "tokenId",
          "type": "uint256"
        }
      ],
      "name": "transferFrom",
      "outputs": [],
      "stateMutability": "nonpayable",
      "type": "function"
    },
    {
      "inputs": [
        {
          "internalType": "address",
          "name": "newOwner",
          "type": "address"
        }
      ],
      "name": "transferOwnership",
      "outputs": [],
      "stateMutability": "nonpayable",
      "type": "function"
    },
    {
      "inputs": [
        {
          "internalType": "address",
          "name": "to",
          "type": "address"
        },
        {
          "internalType": "uint256",
          "name": "tokenId",
          "type": "uint256"
        }
      ],
      "name": "transferReserved",
      "outputs": [],
      "stateMutability": "nonpayable",
      "type": "function"
    },
    {
      "inputs": [],
      "name": "unpause",
      "outputs": [],
      "stateMutability": "nonpayable",
      "type": "function"
    },
    {
      "inputs": [],
      "name": "version",
      "outputs": [
        {
          "internalType": "uint256",
          "name": "",
          "type": "uint256"
        }
      ],
      "stateMutability": "view",
      "type": "function"
    },
    {
      "inputs": [],
      "name": "withdraw",
      "outputs": [],
      "stateMutability": "nonpayable",
      "type": "function"
    }
  ],
  "bytecode": "0x608060405234801561001057600080fd5b50612948806100206000396000f3fe60806040526004361061020f5760003560e01c80636352211e11610118578063a22cb465116100a0578063e8a3d4851161006f578063e8a3d4851461060c578063e985e9c514610621578063eb91d37e1461066a578063f2fde38b1461067f578063fc622b661461069f5761020f565b8063a22cb46514610597578063b88d4fde146105b7578063c87b56dd146105d7578063cd3293de146105f75761020f565b8063715018a6116100e7578063715018a6146105275780638456cb591461053c5780638da5cb5b1461055157806394bf804d1461056f57806395d89b41146105825761020f565b80636352211e146104a75780636b78cacf146104c757806370480275146104e757806370a08231146105075761020f565b80633ccfd60b1161019b57806343bc16121161016a57806343bc16121461041657806354fd4d501461043a57806355f804b31461044f5780635c975abb1461046f5780635de42985146104875761020f565b80633ccfd60b146103ac5780633f4ba83a146103c1578063415dc8e6146103d657806342842e0e146103f65761020f565b8063150b7a02116101e2578063150b7a02146102c55780631785f53c1461030a57806318160ddd1461032a57806323b872dd1461034d5780632a55205a1461036d5761020f565b806301ffc9a71461021457806306fdde0314610249578063081812fc1461026b578063095ea7b3146102a3575b600080fd5b34801561022057600080fd5b5061023461022f366004612416565b6106bf565b60405190151581526020015b60405180910390f35b34801561025557600080fd5b5061025e610713565b604051610240919061261f565b34801561027757600080fd5b5061028b6102863660046124e2565b6107a5565b6040516001600160a01b039091168152602001610240565b3480156102af57600080fd5b506102c36102be366004612305565b61083f565b005b3480156102d157600080fd5b506102f16102e03660046121bd565b630a85bd0160e11b95945050505050565b6040516001600160e01b03199091168152602001610240565b34801561031657600080fd5b506102c3610325366004612129565b610955565b34801561033657600080fd5b5061033f6109a1565b604051908152602001610240565b34801561035957600080fd5b506102c361036836600461217d565b6109be565b34801561037957600080fd5b5061038d61038836600461251e565b6109ef565b604080516001600160a01b039093168352602083019190915201610240565b3480156103b857600080fd5b506102c3610a53565b3480156103cd57600080fd5b506102c3610ad4565b3480156103e257600080fd5b506102c36103f1366004612305565b610b08565b34801561040257600080fd5b506102c361041136600461217d565b610bb1565b34801561042257600080fd5b5061042b610bcc565b60405161024093929190612782565b34801561044657600080fd5b5061033f600181565b34801561045b57600080fd5b506102c361046a36600461244e565b610cf3565b34801561047b57600080fd5b5060c95460ff16610234565b34801561049357600080fd5b506102c36104a23660046124fa565b610d31565b3480156104b357600080fd5b5061028b6104c23660046124e2565b610dcf565b3480156104d357600080fd5b506102c36104e2366004612330565b610e46565b3480156104f357600080fd5b506102c3610502366004612129565b610fa1565b34801561051357600080fd5b5061033f610522366004612129565b610ff0565b34801561053357600080fd5b506102c3611077565b34801561054857600080fd5b506102c36110ab565b34801561055d57600080fd5b506033546001600160a01b031661028b565b6102c361057d3660046124fa565b6110dd565b34801561058e57600080fd5b5061025e61124a565b3480156105a357600080fd5b506102c36105b23660046122d4565b611259565b3480156105c357600080fd5b506102c36105d2366004612257565b611264565b3480156105e357600080fd5b5061025e6105f23660046124e2565b61129c565b34801561060357600080fd5b506102c3611353565b34801561061857600080fd5b5061025e6113ef565b34801561062d57600080fd5b5061023461063c366004612145565b6001600160a01b039182166000908152609c6020908152604080832093909416825291909152205460ff1690565b34801561067657600080fd5b5061033f61141d565b34801561068b57600080fd5b506102c361069a366004612129565b611448565b3480156106ab57600080fd5b506102c36106ba366004612481565b6114e0565b60006001600160e01b031982166380ac58cd60e01b14806106f057506001600160e01b03198216635b5e139f60e01b145b8061070b57506301ffc9a760e01b6001600160e01b03198316145b90505b919050565b6060609780546107229061283b565b80601f016020809104026020016040519081016040528092919081815260200182805461074e9061283b565b801561079b5780601f106107705761010080835404028352916020019161079b565b820191906000526020600020905b81548152906001019060200180831161077e57829003601f168201915b5050505050905090565b6000818152609960205260408120546001600160a01b03166108235760405162461bcd60e51b815260206004820152602c60248201527f4552433732313a20617070726f76656420717565727920666f72206e6f6e657860448201526b34b9ba32b73a103a37b5b2b760a11b60648201526084015b60405180910390fd5b506000908152609b60205260409020546001600160a01b031690565b600061084a82610dcf565b9050806001600160a01b0316836001600160a01b031614156108b85760405162461bcd60e51b815260206004820152602160248201527f4552433732313a20617070726f76616c20746f2063757272656e74206f776e656044820152603960f91b606482015260840161081a565b336001600160a01b03821614806108d457506108d4813361063c565b6109465760405162461bcd60e51b815260206004820152603860248201527f4552433732313a20617070726f76652063616c6c6572206973206e6f74206f7760448201527f6e6572206e6f7220617070726f76656420666f7220616c6c0000000000000000606482015260840161081a565b610950838361154e565b505050565b6033546001600160a01b0316331461097f5760405162461bcd60e51b815260040161081a90612684565b6001600160a01b0316600090815261012f60205260409020805460ff19169055565b600060016109af61012d5490565b6109b991906127f8565b905090565b6109c833826115bc565b6109e45760405162461bcd60e51b815260040161081a906126b9565b6109508383836116b3565b6101315460009081906001600160a01b0316610a1b575050610131546001600160a01b03166000610a4c565b61013154610130546001600160a01b039091169061271090610a3d90866127d9565b610a4791906127c5565b915091505b9250929050565b6033546001600160a01b0316331480610a7c575033600090815261012f602052604090205460ff165b610a985760405162461bcd60e51b815260040161081a90612755565b6033546040516001600160a01b03909116904780156108fc02916000818181858888f19350505050158015610ad1573d6000803e3d6000fd5b50565b6033546001600160a01b03163314610afe5760405162461bcd60e51b815260040161081a90612684565b610b0661185e565b565b6033546001600160a01b0316331480610b31575033600090815261012f602052604090205460ff165b610b4d5760405162461bcd60e51b815260040161081a90612755565b6033546001600160a01b0316331480610b76575033600090815261012f602052604090205460ff165b610b925760405162461bcd60e51b815260040161081a90612755565b610bad308383604051806020016040528060008152506118f1565b5050565b61095083838360405180602001604052806000815250611264565b61013280546101338054919291610be29061283b565b80601f0160208091040260200160405190810160405280929190818152602001828054610c0e9061283b565b8015610c5b5780601f10610c3057610100808354040283529160200191610c5b565b820191906000526020600020905b815481529060010190602001808311610c3e57829003601f168201915b505050505090806002018054610c709061283b565b80601f0160208091040260200160405190810160405280929190818152602001828054610c9c9061283b565b8015610ce95780601f10610cbe57610100808354040283529160200191610ce9565b820191906000526020600020905b815481529060010190602001808311610ccc57829003601f168201915b5050505050905083565b6033546001600160a01b03163314610d1d5760405162461bcd60e51b815260040161081a90612684565b8051610bad9061012e906020840190611fe9565b6033546001600160a01b03163314610d5b5760405162461bcd60e51b815260040161081a90612684565b612710821115610da65760405162461bcd60e51b815260206004820152601660248201527557726f6e6720726f79616c74794250532076616c756560501b604482015260640161081a565b6101309190915561013180546001600160a01b0319166001600160a01b03909216919091179055565b6000818152609960205260408120546001600160a01b03168061070b5760405162461bcd60e51b815260206004820152602960248201527f4552433732313a206f776e657220717565727920666f72206e6f6e657869737460448201526832b73a103a37b5b2b760b91b606482015260840161081a565b600054610100900460ff16610e615760005460ff1615610e65565b303b155b610ec85760405162461bcd60e51b815260206004820152602e60248201527f496e697469616c697a61626c653a20636f6e747261637420697320616c72656160448201526d191e481a5b9a5d1a585b1a5e995960921b606482015260840161081a565b600054610100900460ff16158015610ef3576000805460ff1961ff0019909116610100171660011790555b610efb611924565b610f05848461196b565b610f0e886119b9565b8151610f229061012e906020850190611fe9565b506127106101305561013180546001600160a01b0319166001600160a01b038a161790556101328790558551610f6090610133906020890190611fe9565b508451610f7590610134906020880190611fe9565b50610f8561012d80546001019055565b8015610f97576000805461ff00191690555b5050505050505050565b6033546001600160a01b03163314610fcb5760405162461bcd60e51b815260040161081a90612684565b6001600160a01b0316600090815261012f60205260409020805460ff19166001179055565b60006001600160a01b03821661105b5760405162461bcd60e51b815260206004820152602a60248201527f4552433732313a2062616c616e636520717565727920666f7220746865207a65604482015269726f206164647265737360b01b606482015260840161081a565b506001600160a01b03166000908152609a602052604090205490565b6033546001600160a01b031633146110a15760405162461bcd60e51b815260040161081a90612684565b610b0660006119b9565b6033546001600160a01b031633146110d55760405162461bcd60e51b815260040161081a90612684565b610b06611a0b565b60c95460ff16156111235760405162461bcd60e51b815260206004820152601060248201526f14185d5cd8589b194e881c185d5cd95960821b604482015260640161081a565b600082116111665760405162461bcd60e51b815260206004820152601060248201526f105b5bdd5b9d081d1bdbc81cdb585b1b60821b604482015260640161081a565b60148211156111a85760405162461bcd60e51b815260206004820152600e60248201526d416d6f756e7420746f6f2062696760901b604482015260640161081a565b816111b161141d565b6111bb91906127d9565b3410156112005760405162461bcd60e51b8152602060048201526013602482015272139bdd08195b9bdd59da08115512081cd95b9d606a1b604482015260640161081a565b60005b82811015610950576112298261121961012d5490565b6112249060016127ad565b611a86565b61123861012d80546001019055565b8061124281612876565b915050611203565b6060609880546107229061283b565b610bad338383611aa0565b61126e33836115bc565b61128a5760405162461bcd60e51b815260040161081a906126b9565b611296848484846118f1565b50505050565b6000818152609960205260409020546060906001600160a01b031661131b5760405162461bcd60e51b815260206004820152602f60248201527f4552433732314d657461646174613a2055524920717565727920666f72206e6f60448201526e3732bc34b9ba32b73a103a37b5b2b760891b606482015260840161081a565b611323611b6f565b61132c83611b7f565b60405160200161133d929190612599565b6040516020818303038152906040529050919050565b6033546001600160a01b031633148061137c575033600090815261012f602052604090205460ff165b6113985760405162461bcd60e51b815260040161081a90612755565b6033546001600160a01b031633146113c25760405162461bcd60e51b815260040161081a90612755565b6113e0306113d061012d5490565b6113db9060016127ad565b611c9a565b610b0661012d80546001019055565b60606113f9611b6f565b604051602001611409919061256b565b604051602081830303815290604052905090565b60006114276109a1565b61143790655af3107a40006127d9565b6109b99066071afd498d00006127ad565b6033546001600160a01b031633146114725760405162461bcd60e51b815260040161081a90612684565b6001600160a01b0381166114d75760405162461bcd60e51b815260206004820152602660248201527f4f776e61626c653a206e6577206f776e657220697320746865207a65726f206160448201526564647265737360d01b606482015260840161081a565b610ad1816119b9565b6033546001600160a01b0316331480611509575033600090815261012f602052604090205460ff165b6115255760405162461bcd60e51b815260040161081a90612755565b815161153990610133906020850190611fe9565b50805161095090610134906020840190611fe9565b6000818152609b6020526040902080546001600160a01b0319166001600160a01b038416908117909155819061158382610dcf565b6001600160a01b03167f8c5be1e5ebec7d5bd14f71427d1e84f3dd0314c0f7b2291e5b200ac8c7c3b92560405160405180910390a45050565b6000818152609960205260408120546001600160a01b03166116355760405162461bcd60e51b815260206004820152602c60248201527f4552433732313a206f70657261746f7220717565727920666f72206e6f6e657860448201526b34b9ba32b73a103a37b5b2b760a11b606482015260840161081a565b600061164083610dcf565b9050806001600160a01b0316846001600160a01b0316148061167b5750836001600160a01b0316611670846107a5565b6001600160a01b0316145b806116ab57506001600160a01b038082166000908152609c602090815260408083209388168352929052205460ff165b949350505050565b826001600160a01b03166116c682610dcf565b6001600160a01b03161461172e5760405162461bcd60e51b815260206004820152602960248201527f4552433732313a207472616e73666572206f6620746f6b656e2074686174206960448201526839903737ba1037bbb760b91b606482015260840161081a565b6001600160a01b0382166117905760405162461bcd60e51b8152602060048201526024808201527f4552433732313a207472616e7366657220746f20746865207a65726f206164646044820152637265737360e01b606482015260840161081a565b61179b838383611de8565b6117a660008261154e565b6001600160a01b0383166000908152609a602052604081208054600192906117cf9084906127f8565b90915550506001600160a01b0382166000908152609a602052604081208054600192906117fd9084906127ad565b909155505060008181526099602052604080822080546001600160a01b0319166001600160a01b0386811691821790925591518493918716917fddf252ad1be2c89b69c2b068fc378daa952ba7f163c4a11628f55a4df523b3ef91a4505050565b60c95460ff166118a75760405162461bcd60e51b815260206004820152601460248201527314185d5cd8589b194e881b9bdd081c185d5cd95960621b604482015260640161081a565b60c9805460ff191690557f5db9ee0a495bf2e6ff9c91a7834c1ba4fdd244a5e8aa4e537bd38aeae4b073aa335b6040516001600160a01b03909116815260200160405180910390a1565b6118fc8484846116b3565b61190884848484611e4f565b6112965760405162461bcd60e51b815260040161081a90612632565b600054610100900460ff1661194b5760405162461bcd60e51b815260040161081a9061270a565b611953611f5c565b61195b611f5c565b611963611f83565b610b06611f5c565b600054610100900460ff166119925760405162461bcd60e51b815260040161081a9061270a565b81516119a5906097906020850190611fe9565b508051610950906098906020840190611fe9565b603380546001600160a01b038381166001600160a01b0319831681179093556040519116919082907f8be0079c531659141344cd1fd0a4f28419497f9722a3daafe3b4186f6b6457e090600090a35050565b60c95460ff1615611a515760405162461bcd60e51b815260206004820152601060248201526f14185d5cd8589b194e881c185d5cd95960821b604482015260640161081a565b60c9805460ff191660011790557f62e78cea01bee320cd4e420270b5ea74000d11b0c9f74754ebdbfc544b05a2586118d43390565b610bad828260405180602001604052806000815250611fb6565b816001600160a01b0316836001600160a01b03161415611b025760405162461bcd60e51b815260206004820152601960248201527f4552433732313a20617070726f766520746f2063616c6c657200000000000000604482015260640161081a565b6001600160a01b038381166000818152609c6020908152604080832094871680845294825291829020805460ff191686151590811790915591519182527f17307eab39ab6107e8899845ad3d59bd9653f200f220920489ca2b5937696c31910160405180910390a3505050565b606061012e80546107229061283b565b606081611ba457506040805180820190915260018152600360fc1b602082015261070e565b8160005b8115611bce5780611bb881612876565b9150611bc79050600a836127c5565b9150611ba8565b60008167ffffffffffffffff811115611bf757634e487b7160e01b600052604160045260246000fd5b6040519080825280601f01601f191660200182016040528015611c21576020820181803683370190505b5090505b84156116ab57611c366001836127f8565b9150611c43600a86612891565b611c4e9060306127ad565b60f81b818381518110611c7157634e487b7160e01b600052603260045260246000fd5b60200101906001600160f81b031916908160001a905350611c93600a866127c5565b9450611c25565b6001600160a01b038216611cf05760405162461bcd60e51b815260206004820181905260248201527f4552433732313a206d696e7420746f20746865207a65726f2061646472657373604482015260640161081a565b6000818152609960205260409020546001600160a01b031615611d555760405162461bcd60e51b815260206004820152601c60248201527f4552433732313a20746f6b656e20616c7265616479206d696e74656400000000604482015260640161081a565b611d6160008383611de8565b6001600160a01b0382166000908152609a60205260408120805460019290611d8a9084906127ad565b909155505060008181526099602052604080822080546001600160a01b0319166001600160a01b03861690811790915590518392907fddf252ad1be2c89b69c2b068fc378daa952ba7f163c4a11628f55a4df523b3ef908290a45050565b60c95460ff16156109505760405162461bcd60e51b815260206004820152602b60248201527f4552433732315061757361626c653a20746f6b656e207472616e73666572207760448201526a1a1a5b19481c185d5cd95960aa1b606482015260840161081a565b60006001600160a01b0384163b15611f5157604051630a85bd0160e11b81526001600160a01b0385169063150b7a0290611e939033908990889088906004016125e2565b602060405180830381600087803b158015611ead57600080fd5b505af1925050508015611edd575060408051601f3d908101601f19168201909252611eda91810190612432565b60015b611f37573d808015611f0b576040519150601f19603f3d011682016040523d82523d6000602084013e611f10565b606091505b508051611f2f5760405162461bcd60e51b815260040161081a90612632565b805181602001fd5b6001600160e01b031916630a85bd0160e11b1490506116ab565b506001949350505050565b600054610100900460ff16610b065760405162461bcd60e51b815260040161081a9061270a565b600054610100900460ff16611faa5760405162461bcd60e51b815260040161081a9061270a565b60c9805460ff19169055565b611fc08383611c9a565b611fcd6000848484611e4f565b6109505760405162461bcd60e51b815260040161081a90612632565b828054611ff59061283b565b90600052602060002090601f016020900481019282612017576000855561205d565b82601f1061203057805160ff191683800117855561205d565b8280016001018555821561205d579182015b8281111561205d578251825591602001919060010190612042565b5061206992915061206d565b5090565b5b80821115612069576000815560010161206e565b600067ffffffffffffffff8084111561209d5761209d6128d1565b604051601f8501601f19908116603f011681019082821181831017156120c5576120c56128d1565b816040528093508581528686860111156120de57600080fd5b858560208301376000602087830101525050509392505050565b803561070e816128e7565b600082601f830112612113578081fd5b61212283833560208501612082565b9392505050565b60006020828403121561213a578081fd5b8135612122816128e7565b60008060408385031215612157578081fd5b8235612162816128e7565b91506020830135612172816128e7565b809150509250929050565b600080600060608486031215612191578081fd5b833561219c816128e7565b925060208401356121ac816128e7565b929592945050506040919091013590565b6000806000806000608086880312156121d4578081fd5b85356121df816128e7565b945060208601356121ef816128e7565b935060408601359250606086013567ffffffffffffffff80821115612212578283fd5b818801915088601f830112612225578283fd5b813581811115612233578384fd5b896020828501011115612244578384fd5b9699959850939650602001949392505050565b6000806000806080858703121561226c578384fd5b8435612277816128e7565b93506020850135612287816128e7565b925060408501359150606085013567ffffffffffffffff8111156122a9578182fd5b8501601f810187136122b9578182fd5b6122c887823560208401612082565b91505092959194509250565b600080604083850312156122e6578182fd5b82356122f1816128e7565b915060208301358015158114612172578182fd5b60008060408385031215612317578182fd5b8235612322816128e7565b946020939093013593505050565b600080600080600080600060e0888a03121561234a578182fd5b612353886120f8565b965060208801359550604088013567ffffffffffffffff80821115612376578384fd5b6123828b838c01612103565b965060608a0135915080821115612397578384fd5b6123a38b838c01612103565b955060808a01359150808211156123b8578384fd5b6123c48b838c01612103565b945060a08a01359150808211156123d9578384fd5b6123e58b838c01612103565b935060c08a01359150808211156123fa578283fd5b506124078a828b01612103565b91505092959891949750929550565b600060208284031215612427578081fd5b8135612122816128fc565b600060208284031215612443578081fd5b8151612122816128fc565b60006020828403121561245f578081fd5b813567ffffffffffffffff811115612475578182fd5b6116ab84828501612103565b60008060408385031215612493578182fd5b823567ffffffffffffffff808211156124aa578384fd5b6124b686838701612103565b935060208501359150808211156124cb578283fd5b506124d885828601612103565b9150509250929050565b6000602082840312156124f3578081fd5b5035919050565b6000806040838503121561250c578182fd5b823591506020830135612172816128e7565b60008060408385031215612530578182fd5b50508035926020909101359150565b6000815180845261255781602086016020860161280f565b601f01601f19169290920160200192915050565b6000825161257d81846020870161280f565b691cdd1bdc99599c9bdb9d60b21b920191825250600a01919050565b600083516125ab81846020880161280f565b633539b7b760e11b908301908152602f60f81b600482015283516125d681600584016020880161280f565b01600501949350505050565b6001600160a01b03858116825284166020820152604081018390526080606082018190526000906126159083018461253f565b9695505050505050565b600060208252612122602083018461253f565b60208082526032908201527f4552433732313a207472616e7366657220746f206e6f6e20455243373231526560408201527131b2b4bb32b91034b6b83632b6b2b73a32b960711b606082015260800190565b6020808252818101527f4f776e61626c653a2063616c6c6572206973206e6f7420746865206f776e6572604082015260600190565b60208082526031908201527f4552433732313a207472616e736665722063616c6c6572206973206e6f74206f6040820152701ddb995c881b9bdc88185c1c1c9bdd9959607a1b606082015260800190565b6020808252602b908201527f496e697469616c697a61626c653a20636f6e7472616374206973206e6f74206960408201526a6e697469616c697a696e6760a81b606082015260800190565b60208082526013908201527227b7363c9030b236b4b71037b91037bbb732b960691b604082015260600190565b60008482526060602083015261279b606083018561253f565b8281036040840152612615818561253f565b600082198211156127c0576127c06128a5565b500190565b6000826127d4576127d46128bb565b500490565b60008160001904831182151516156127f3576127f36128a5565b500290565b60008282101561280a5761280a6128a5565b500390565b60005b8381101561282a578181015183820152602001612812565b838111156112965750506000910152565b60028104600182168061284f57607f821691505b6020821081141561287057634e487b7160e01b600052602260045260246000fd5b50919050565b600060001982141561288a5761288a6128a5565b5060010190565b6000826128a0576128a06128bb565b500690565b634e487b7160e01b600052601160045260246000fd5b634e487b7160e01b600052601260045260246000fd5b634e487b7160e01b600052604160045260246000fd5b6001600160a01b0381168114610ad157600080fd5b6001600160e01b031981168114610ad157600080fdfea2646970667358221220d75955e59114179e4297b07ae53f13b9dbe381c931b31ab76500b2e32c6a111264736f6c63430008020033",
  "linkReferences": {},
  "deployedLinkReferences": {}
}